:100000000C9452030C9499030C9499030C94990347
:100010000C9499030C9499030C9499030C949903F0
:100020000C9499030C9499030C9440290C94FC288B
:100030000C943D2A0C9499030C9499030C94990305
:100040000C9499030C9499030C9499030C949903C0
:100050000C9499030C94192A0C9499030C94990309
:100060000C9499030C9499030C9499030C949903A0
:100070000C9499030C9499030C9499030C94990390
:100080000C9499030C9499030C9499030C94990380
:100090000C9499030C9499030C9499030C94990370
:1000A0000C9499030C9499030C949903050109028B
:1000B000A10185020901A100050919012905150001
:1000C00025019505750181029501750381010501E1
:1000D000093009311581257F950275088106093897
:1000E0001581257F950175088106050C0A380215D2
:1000F00081257F950175088106C0C005010980A191
:1001000001850319012AB700150126B7009501756D
:10011000108100C0050C0901A101850419012AA064
:1001200002150126A002950175108100C005010984
:1001300006A1018506050719E029E71500250195A7
:1001400008750181020507190029EF1500250195A1
:10015000F0750181020508190129059505750191C0
:1001600002950175039101C00660FF0961A10109B3
:1001700062150026FF0095207508810209631500AD
:1001800026FF00952075089102C005010906A1010E
:10019000050719E029E71500250195087501810279
:1001A0009501750881010507190029FF150026FF33
:1001B0000095067508810005081901290595057542
:1001C000019102950175039101C00000000000003B
:1001D000000000000000000000000000000000001F
:1001E00000000000000000000000000000007E0F82
:1001F00000D4FFFFFFC700000078000000000000EF
:1002000000002A2B28000000000000000000000071
:10021000000000000029000000002C1E34202122D4
:1002200024342627252E362D3738271E1F2021223D
:10023000232425263333362E37381F0405060708B6
:10024000090A0B0C0D0E0F101112131415161718A6
:10025000191A1B1C1D2F3130232D350405060708E4
:10026000090A0B0C0D0E0F10111213141516171886
:10027000191A1B1C1D2F3130354C00047F3F1F64A1
:100280003214643214783C1E1E140A05FD377A5865
:100290005A000004E6D6B446020021011600000010
:1002A000742FE5A3E000F0009B5D003D8889C654F3
:1002B00036C3174FE4DF17B8D7B446F9E9ADB3DD5D
:1002C0005169ED4813FB31418A58A1325A0DF96545
:1002D0007474660AFD55678AAB78FD09E2544A6278
:1002E00011AE46130F6DFE4B3DA29593A6658E751C
:1002F000DF3481DE414479E8113F00D3A9E178FE83
:100300007F54A6B2925EE5F1650743B9EFAD928ED8
:1003100097A75D102E189E4DD56FBA5A9E419B83AC
:10032000477C0533BA9AE2A0F522F93FB98104D09F
:100330003EA142DDB0D32D0813BE83C768AF20991C
:10034000386076D6CB9F0000A224872587F03F0A2D
:100350000001B701F101000055C5E2C6B1C467FB59
:10036000020000000004595A0001010101010101CD
:10037000010102020202020202020203030303035A
:100380000303030404040404040405050505050629
:1003900006060606070707070708080808090909E7
:1003A000090A0A0A0B0B0B0C0C0C0D0D0D0E0E0E90
:1003B0000F0F0F1010111111121213131414151521
:1003C00016161717181819191A1A1B1B1C1D1D1E93
:1003D0001E1F2020212222232424252626272829E7
:1003E000292A2B2C2D2D2E2F303132323334353615
:1003F0003738393A3B3C3D3E3F4041424344454615
:100400004748494A4C4D4E4F5051535455565859F0
:100410005A5B5D5E5F616264656668696B6C6D6F97
:100420007072737577787A7B7D7E8082838587880A
:100430008A8C8E8F91939596989A9C9EA0A2A3A544
:10044000A7A9ABADAFB1B3B5B7BABCBEC0C2C4C645
:10045000C9CBCDCFD1D4D6D8DBDDDFE2E4E7E9EB01
:10046000EEF0F3F5F8FAFDFFFFAA7F5540222325B1
:100470002628292A2C2D2F3032333536383A3B3D69
:100480003E4042434547494A4C4E505153555759B7
:100490005A5C5E6062646668696B6D6F71737577D4
:1004A000797B7D7F81838587898A8C8E90929496D3
:1004B000989A9C9E9FA1A3A5A7A8AAACAEAFB1B3E2
:1004C000B4B6B8B9BBBCBEBFC1C2C3C5C6C7C9CA32
:1004D000CBCCCDCED0D1D2D2D3D4D5D6D7D7D8D9F4
:1004E000D9DADADBDBDBDCDCDCDCDCDDDDDDDDDC52
:1004F000DCDCDCDCDBDBDBDADAD9D9D8D7D7D6D564
:10050000D4D3D2D2D1D0CECDCCCBCAC9C7C6C5C325
:10051000C2C1BFBEBCBBB9B8B6B4B3B1AFAEACAA72
:10052000A8A7A5A3A19F9E9C9A98969492908E8C22
:100530008A89878583817F7D7B79777573716F6DFC
:100540006B6968666462605E5C5A595755535150D6
:100550004E4C4A4947454342403E3D3B3A3836358A
:100560003332302F2D2C2A2928262523224B004ACE
:100570000052004D004E00500051004F003700A9BE
:1005800000AE00AC000151AA00A800AB00005C0165
:100590000001000100010001000100010001000153
:1005A0000001000100010001000100010001000143
:1005B0000001000100010001000100010001000133
:1005C0000001000100010001000100010001000123
:1005D0000001000100010001000100010001000113
:1005E0000001000100010001000100010009025B9F
:1005F00000030100A0FA0904000001030101000941
:1006000021110100012240000705810308000A09A9
:10061000040100020300000009211101000122224F
:1006200000070582032000010705030320000109DC
:10063000040200010300000009211101000122BC95
:10064000000705840320000A1201000200000008D0
:100650004B4701420100010203011C0376006900BF
:1006600061006C003A00660036003400630032001E
:100670006200330063000000100347004B0042009B
:100680002D004D00310036000000140367006B00A0
:100690006500790062006F00610072006400000074
:1006A0000403090411241FBECFEFDAE0DEBFCDBF83
:1006B00004B603FE27C08091580490915904A0917C
:1006C0005A04B0915B048730904BA740B04BD1F4F3
:1006D000109258041092590410925A0410925B041C
:1006E00014BE84B7877F84BF0FB6F894A895809115
:1006F0006000886180936000109260000FBEE0E0AF
:10070000F8E3099511E0A0E0B1E0EEECF5E602C0F7
:1007100005900D92A439B107D9F724E0A4E9B1E01E
:1007200001C01D92A835B207E1F70E94642A0C941B
:10073000B3320C940000E8EDF0E080818E7F80837E
:100740001092E2001092DA001092E100A0EEB0E008
:100750008C9181608C9380818F77808319BCA7ED09
:10076000B0E08C918E7F8C9380818F7E80831092FD
:10077000250408952091E4003091E50095E6A90153
:100780002091EC00822F817020FF06C08091E8004C
:1007900080FF06C080E008952091E80022FD1AC085
:1007A00080915304882389F0853089F08091EB0093
:1007B00085FD0FC02091E4003091E50042175307FA
:1007C000F9F29150E1F684E0089582E0089583E023
:1007D000089581E00895EF92FF920F931F93CF93B6
:1007E0007C018B010E94BA03C82F811117C0809130
:1007F000E80085FD0BC08091E8008E778093E800CB
:100800000E94BA03882399F3C82F08C0F701819189
:100810007F018093F1000150110949F78C2FCF918E
:100820001F910F91FF90EF900895CF93FC0180915D
:100830005304843001F5C091E900CF702091EC00A1
:10084000922F917020FD90E8C92B82E08093E900FF
:100850008091E80080FF0CC050E040E060E270E072
:10086000CF010E94EB038091E8008E778093E8002F
:10087000CF70C093E900CF91089580914B0487FF1A
:1008800013C08091E80082FF06C08091E8008B775A
:100890008093E80004C0809153048111F2CF089541
:1008A000809153048823D9F38091E80080FFF8CF2A
:1008B0008091E8008E77ECCF982F9093E900242F59
:1008C000762F50E0891731F07091EC002091ED0007
:1008D0005091F00021FD07C09F5F973071F7809322
:1008E000E90081E008953091EB003E7F3093EB000A
:1008F0003091ED003D7F3093ED003091EB003160A1
:100900003093EB007093EC002093ED005093F000D7
:100910002091EE0027FDE0CF80E00895CF92DF9296
:10092000EF92FF920F931F93CF93DF93C8EDD0E028
:1009300088818F7E8883E7EDF0E08081816080830D
:1009400084E082BF81E08093250488818E7F888344
:1009500002EE10E0F80110821092DA0081EEC82E4B
:10096000D12CF601108288818F77888388818068F6
:10097000888388818F7D888319BC109253041092DC
:100980004A04109249041092480490EEE92EF12C8A
:10099000F70180818B7F808388818160888342E03A
:1009A00060E080E00E945C04F60180818E7F80839D
:1009B000F801808181608083808188608083F70175
:1009C00080818E7F8083888180618883DF91CF9151
:1009D0001F910F91FF90EF90DF90CF900895FC0151
:1009E000809151049091520486179707A0F06115E9
:1009F000710529F49091E8009E779093E80090E0CB
:100A00006115710551F4911108C08091E80082FFD1
:100A100034C080E00895BC01F2CF80915304882354
:100A2000C1F18530C1F18091E80083FD30C0809133
:100A3000E80082FDEACF8091E80080FFE1CF80915D
:100A4000F3002091F200382F6115710519F028305C
:100A5000310558F091E02830310509F090E02091FF
:100A6000E8002E772093E800CBCF81918093F100AE
:100A7000615071092F5F3F4FE7CF80915304882366
:100A800041F0853041F08091E80083FFBECF81E0E6
:100A9000089582E0089583E00895089580912704E1
:100AA00008959C014FB7F89480911C0490911D0407
:100AB000A0911E04B0911F044FBF821B930B089599
:100AC0002FB7F89480911C0490911D04A0911E04EE
:100AD000B0911F042FBF08952091190430911A047A
:100AE0002817390771F090931A0480931904E09144
:100AF0001704F0911804309721F00084F185E02D5F
:100B00000994089520911504309116042817390787
:100B100071F09093160480931504E0911704F091FE
:100B20001804309721F00680F781E02D099408958C
:100B3000E0911704F0911804309721F00190F081B2
:100B4000E02D099480E00895DC0160915D038091BF
:100B50005E03962F891301C00895292F30E0F90113
:100B6000EE0FFF1FEB5AFC4F408151814A175B0784
:100B7000A1F487E08A9FA0018B9F500D1124435E52
:100B80005C4F81E0FA0184839613E6CF2F5F3F4FDD
:100B90002370332720935D0308952F5F3F4F922FDB
:100BA0009370D8CF1092BA021092B902EDE1F3E03F
:100BB0008581811102C014821682379683E0E53563
:100BC000F807B1F70895FA01811101C0FB010994FA
:100BD000089580914C02982F9E7F29F48170826045
:100BE00080934C0208958A34E8F381708864F8CFCA
:100BF000AF92BF92DF92EF92FF920F931F93CF932A
:100C0000DF93082F162FE901E42FF0E0E859FC4F9D
:100C1000611110C0E4915E2F4E2F4983E8835A83FF
:100C2000DF91CF911F910F91FF90EF90DF90BF90D8
:100C3000AF900895E62EF12C4491D42EE42FF0E0ED
:100C400026E0829FC00111242FEF30E0B9010E94FD
:100C5000A131802F90E0880F991F55E5569FD00154
:100C6000579FB00D11248A1B9B0B982F990F890F4A
:100C70005901AE18BF08AE9ED001AF9EB00DBE9E0A
:100C8000B00D11245B2F189F80011124012F112713
:100C90005901A01AB10AAE9E8001AF9E100DBE9EF2
:100CA000100D11245901A81AB108AE9CC001AF9CC7
:100CB000900DBE9C900D1124892F9927281B390B6C
:100CC0002E9FC0012F9F900D3E9F900D1124E92F64
:100CD00062307105A1F050F46115710509F49DCFE2
:100CE0006130710581F0EB2F512F97CF6430710582
:100CF00069F080F06630710509F48FCFF4CFE42FEE
:100D00004B2F592F8ACFE42F412F87CFEB2F542F12
:100D1000492F83CF4B2F5D2DE12F7FCF0E946005A0
:100D20009C019091310280913202982B21F03093F6
:100D30002E0220932D029091330280913402982B41
:100D400021F030932C0220932B02E0911704F091B4
:100D50001804309749F082E080932F020480F581D7
:100D6000E02D8FE292E00994089590913102803F46
:100D700059F48091320287FF0DC010923202911116
:100D80000BC01092290208C0813F81F48091320289
:100D900018169CF3992381F08091330290913402CC
:100DA000892B09F064C0109228020895823F49F40B
:100DB00097FFF0CF10923102809132028111ECCF77
:100DC000E0CF833F19F41916ACF3E4CF209133023E
:100DD000893F29F41216F4F610923302DBCF8A3FD2
:100DE00019F427FFD7CFF8CF209134028B3F29F495
:100DF00027FFD0CF10923402CDCF8C3F19F41216BA
:100E0000CCF3C8CF843F31F4809130028E7F809341
:100E10003002C0CF853F21F4809130028D7FF7CF23
:100E2000863F21F4809130028B7FF1CF873F21F400
:100E300080913002877FEBCF883F21F48091300290
:100E40008F7EE5CF8D3F31F480912A028E7F809393
:100E50002A02A0CF8E3F21F480912A028D7FF7CF06
:100E60008F3F09F097CF80912A028B7FF0CF0895B2
:100E700080912A0280FD16C081FD16C082FD16C039
:100E8000809128028823A1F0883280F428E0829F94
:100E9000C001112468E270E00E94B531862F672BF3
:100EA00039F0089582E0089584E0089588E0089577
:100EB00081E0089580912A0280FD14C081FD14C054
:100EC00082FD16C080912902882381F0843180F44C
:100ED00022E3829FC001112464E170E00E94B531D9
:100EE000862F08958CE0089589E1089585E008959E
:100EF00082E30895803F31F40E945A0781958093E0
:100F000032020895813F19F40E945A07F8CF823FB8
:100F100031F40E945A078195809331020895833FEE
:100F200019F40E945A07F8CF893F29F40E94380724
:100F30008093330208958A3F21F40E9438078195F7
:100F4000F7CF8B3F31F40E943807819580933402AC
:100F500008958C3F19F40E943807F8CF843F31F48C
:100F6000809130028160809330020895853F21F4A2
:100F7000809130028260F7CF863F21F48091300269
:100F80008460F1CF873F21F4809130028860EBCFFD
:100F9000883F21F4809130028061E5CF8D3F31F4AC
:100FA00080912A02816080932A0208958E3F21F465
:100FB00080912A028260F7CF8F3FB9F780912A0291
:100FC0008460F1CF80E00895F894E82FE295EF7007
:100FD000F0E031A1282F2F7081E090E001C0880F50
:100FE0002A95EAF7982F9095932391A392A1892BA4
:100FF00082A3789408959091200492FF06C0282F30
:1010000028712830F9F4877F846093FF06C0282F69
:1010100028712831F1F4877E84612091210420FF1A
:1010200006C0382F38713830D9F4877F816021FFAE
:1010300006C0282F28712831D1F4877E816194FD64
:10104000877E0895282F24712430F9F68B7F8860DD
:10105000DCCF282F2471243101F78B7E8861DDCF0E
:10106000382F3171313019F78E7F8860E0CF282F0B
:101070002171213121F78E7E8861E1CFCF93DF93FB
:10108000EC0182389105A9F1D8F58133910509F475
:1010900096C048F58932910509F48AC08A9709F407
:1010A00095C0C11521E5D20708F0BCC0C11530E5D7
:1010B000D30708F014C1C83ED10508F09CC0C03E5B
:1010C000D10560F5C83AD10508F087C0C53AD10509
:1010D00008F0FDC0C130D10509F12097F9F0C43006
:1010E000D105E0F440C08533910509F45AC0C99791
:1010F000C1F680912004837089F0C0EED0E00EC06C
:10110000833E910599F170F4803E910501F1823E94
:10111000910539F68091200482FD21C0CE01DF9136
:10112000CF910895863E910561F1873E910571F159
:10113000843E910509F0B5CF8091210481FFEECF67
:1011400080912004C7EED0E084FD0DC0E7CF8091F0
:10115000200480FD12C19091210490FFDFCFC3EEE7
:10116000D0E084FFDBCFD0E0C0E0D8CF8091200476
:1011700082FD06C19091210490FDBFCF84FFCECFA8
:10118000F2CF8091200483FDDDCFC8CF8091200471
:1011900083FDF9C09091210491FFF0CFC4EED0E01F
:1011A000BDCF8091200485FFB9CFC9E2D0E0B6CF92
:1011B0008091200485FFB2CFC5E3D0E0AFCF80910E
:1011C000200486FFABCFCAE2D0E0A8CF80912004F4
:1011D00086FFA4CFC1E3D0E0A1CFCF3BD10518F665
:1011E000C85AD0E0CC0FDD1FC75DDE4F0990D88113
:1011F000C02DD46493CFC11540E2D40758F4C11573
:1012000081E0D80708F08ACFC03FD10508F4ABCF02
:10121000D06584CFC11590E4D90708F4A4CFDF705E
:10122000D06A7CCFC11525E5D20700F5C11534E59C
:10123000D30708F08AC0C11543E5D40708F071C090
:10124000C11582E5D80708F467C0CE0183709927DD
:1012500021E030E002C0220F331F8A95E2F7C695E5
:10126000C69580E2C89FE001112452C0C11599E5DE
:10127000D907A8F4C11528E5D20708F06BC0C1153D
:1012800036E5D30708F06FCF8C2F0E94FB07C82FDD
:10129000D0E0DC2FCC27CC27DF71D0623FCFC11547
:1012A0004AE5D40708F45BC0CE0190568115904200
:1012B00008F059CF8D2F8F710E94FB0790E0982F77
:1012C000882788279F719C012C2BE901E6CFC55AFE
:1012D000D0E0CA5DDE4FC881D0E0D0641FCFCE0120
:1012E000E4E096958795EA95E1F783702C2F269593
:1012F0002695237040E2249F90011124382B8C2FD7
:101300008370C1E0D0E002C0CC0FDD1F8A95E2F708
:10131000C22BD32BDC6802CFDC2FCC27C16FD06A65
:10132000FDCECE018370992721E030E002C0220F6C
:10133000331F8A95E2F7C695C69590E2C99FE001F2
:101340001124C22BD32BDA68E9CEDC2FCC27C46F53
:10135000D06AE4CEDC2FCC27C06FD06ADFCE8C2FD2
:101360008F700E94FB0734E0D695C7953A95E1F758
:10137000CF709C2FEC01D069D1CEC9E3D0E0CECEA6
:10138000C2EED0E0CBCEC6EED0E0C8CE80910E0249
:10139000882331F010920E0210920D0210920C026E
:1013A0000895809590916203982390936203089525
:1013B00080959091610398239093610308958091A3
:1013C000610390916203892B90910B02892B80938A
:1013D000960180910E02882329F10E9460052091D8
:1013E0000C0230910D02821B930B8838934110F050
:1013F0000E94C6098091960190910E02892B8093DC
:10140000960180911D01882341F18091200487FF7E
:1014100024C08EE1E8E9F1E090E0815000F59111FF
:101420000E94C609E0911704F09118043097E1F08A
:1014300080911D01882359F08091200487FF07C007
:10144000809196018093970186E0809396010280B7
:10145000F381E02D86E991E0099486E0DBCF2191CC
:101460002223D9F29F5FD9CF0895EF92FF920F9375
:101470001F93CF93DF93EC018A85811134C0EB80F9
:10148000FC8087E5F81A26E12E9DC0012F9D900D66
:101490001124DC01AB59BC4F1496ED91FC911597CA
:1014A000309731F054966D917C9185599C4F0995F8
:1014B00086E18E9D80018F9D100D11240B591C4FCC
:1014C000F80187810E94D809F80180850E94D1091E
:1014D0000E94DF09188219861B861E821D821092C7
:1014E000640310926303DF91CF911F910F91FF90DE
:1014F000EF900895CF93DF93EC01898981111BC090
:1015000081E0898B809161039F81892B80936103A6
:10151000809162039885892B809362030E94DF0982
:10152000EA81FB81309739F06C897D89CE0106967E
:10153000DF91CF910994DF91CF91089510920A0223
:1015400010920902109208020895809107028111F9
:1015500010920702089590911D019923D1F0909166
:10156000200497FF16C0E82FE695E695E695EE3144
:10157000E0F4F0E0EA56FE4F282F277081E090E07B
:1015800001C0880F2A95EAF780959281892382838A
:101590000895E8E9F1E09191891303C0DF01119703
:1015A0001C9291E0EE39F907B1F7089590911D0171
:1015B0009923C1F09091200497FF14C0E82FE6957D
:1015C000E695E695EE31F8F4F0E0EA56FE4F8770C6
:1015D00021E030E001C0220F8A95EAF78281822B58
:1015E00082830895A8E9B1E0EFEF90E02D91821792
:1015F00051F0EF3F19F4211101C0E92F9F5F9630A0
:10160000A9F7EF3F09F408950E2E000CFF0BEA56E0
:10161000FE4FE6CF809106029091C501981301C05C
:1016200008958F5F8770FACF9E3F41F1990F990F10
:10163000E92FE80F9E2F9770E695E695E69583E0F3
:10164000E89FF0011124E954FE4F50E040E080E0B3
:10165000219130E0092E02C0369527950A94E2F7D1
:1016600021703327042E01C0220F0A94EAF7822B3F
:101670004F5F5F4F4330510559F7089580E008955B
:101680009E3F61F1990F990FE92FE80F8E2F877018
:1016900041E001C0440F8A95EAF7E695E695E695A4
:1016A00083E0E89FF0011124E954FE4F30E020E090
:1016B00070E05191DF011197CB01022E02C0969587
:1016C00087950A94E2F78170819585278423852781
:1016D0008C932F5F3F4F2330310559F7089590E0E9
:1016E00080E00E94820590E080E00E946C051092EC
:1016F000620310920B020E94DF0986E0EFE2F2E043
:10170000DF011D928A95E9F71092290210922802B2
:1017100010922A020C948E06809354040C946F0B42
:1017200080915404982F9670963019F488600C9428
:101730008C0B877FFCCF21E030E001C0220F8A951F
:10174000EAF720958091540482230C948C0B90919D
:101750000A028095892380930A02282F277091F42A
:10176000282F082E000C330B9217130659F0909176
:10177000210492FD07C08595859585950E949B0B58
:101780000C949E0A089521E030E001C0220F8A9552
:10179000EAF780915404822B0C948C0B90912104D5
:1017A00092FD10C098E0899F90011124622B6093F4
:1017B0000A020E94C30B0E94600590930902809365
:1017C000080208950C94C30B80930F020C946F0BC6
:1017D000882321F00E94D1090C94DF090895882301
:1017E00039F090916203982B909362030C94DF0977
:1017F0000895882321F00E94D8090C94DF090895E8
:10180000882339F090916103982B909361030C9495
:10181000DF090895882309F452C0823871F40E94C8
:10182000980581FF4CC089E30E94D60A0E94DF0917
:1018300089E30E94AB0A0C94DF09833859F40E94B3
:10184000980580FF3CC083E50E94D60A0E94DF090C
:1018500083E5EFCF843859F40E94980582FF2FC0AA
:1018600087E40E94D60A0E94DF0987E4E2CF9CEF5A
:10187000980F913AF0F290E2980F983050F48770F8
:1018800091E001C0990F8A95EAF7892F0E94D80943
:10189000D2CF9BE5980F933020F490E080E00C9439
:1018A000820598E5980F973120F490E080E00C9441
:1018B0006C05803F20F00E94B5060C948E060895BA
:1018C0009C013A9521153F4150F5FC01EE27F1703E
:1018D000BC0166277270AC01442754709C0122271A
:1018E000387094FF0EC080E1EF2B09F480E0672B85
:1018F00009F08062452B09F08064232B89F0806811
:10190000089581E0EF2B09F480E0672B09F08260F5
:10191000452B09F08460232B19F08860089580E03E
:10192000089580932204709324046093230480918B
:1019300053048430F9F48093E9008FEF9091E8002C
:10194000815095FD06C095ED9A95F1F70000811143
:10195000F5CF8091E80085FF0DC050E040E063E0E6
:1019600070E082E294E00E94EB038091E8008E77C1
:101970008093E8000895BC0184E00C94910CBC01B4
:1019800083E00C94910C9C0184E08093E9009FEF2C
:101990008091E800915085FD06C085ED8A95F1F7AC
:1019A00000009111F5CF8091E80085FF0CC050E058
:1019B00040E066E070E0C9010E94EB038091E8001E
:1019C0008E778093E8000895CF93DF93EC018091A8
:1019D0001D018823B1F18091200487FF32C060E2AD
:1019E00084E08093E9008FEF9091E800815095FDAD
:1019F00006C095ED9A95F1F700008111F5CF809121
:101A0000E80085FF1BC080911D0170E050E040E0C0
:101A1000811104C050E040E068E070E0CE010E9417
:101A2000EB038091E8008E778093E80080E2FE016E
:101A3000A8E2B4E001900D928A95E1F7DF91CF9191
:101A4000089568E081E0CDCF81E08093E00080E2FE
:101A50008093D8001092C9008FE19EE40197F1F7BE
:101A600000C0000087E090EBDC0180935804909365
:101A70005904A0935A04B0935B0488E19CE00FB62C
:101A8000F894A895809360000FBE90936000FFCFFC
:101A900080914C0280FD0AC0E0E4F2E011821082E5
:101AA0001282339652E0EC34F507C1F7819A31B3D4
:101AB0003D7F21B322604FB7F89480E492E0FC01AF
:101AC0005191CF0168E021BB000000C057FF31BB3E
:101AD000550F000000C000C000C031BB00C06A95B7
:101AE00091F7F2E08C349F0751F74FBF8FE594E0F8
:101AF0000197F1F700C000000895EF92FF920F9355
:101B00001F93CF93DF938C01C0E4D2E0F12CE12C42
:101B1000F801948160914E0280914D02F2E0EF163F
:101B2000F104FCF49923F9F09E0140914F020E94C8
:101B3000F8052FEFE21AF20A239684E0E816F10482
:101B400039F70E94480DF801848190E00196817078
:101B500099278483DF91CF911F910F91FF90EF9090
:101B60000895992309F39E0140E0E1CF8F929F925F
:101B7000AF92BF92CF92DF92EF92FF920F931F939B
:101B8000CF93DF93EC014C81042F10E09801D80132
:101B90000E9400329B01AC010E9416324B015C0195
:101BA000E0E2F0E0E01BF10BA5E5B0E0AC019B0149
:101BB0000E9416326B017C019F01DF010E94F83107
:101BC0009B01AC010E9421329B01AC01280D391D03
:101BD0004A1D5B1DC701B6010E94C931F22E822F3A
:101BE00090E039E23F15E0F143E0249F9001112499
:101BF00035952795122F109590E4C92E92E0D92E95
:101C000000E085E5E82EEF18802F8695C9F58E2D2A
:101C10009601412F60914E020E94F8050F5F53E03C
:101C2000C50ED11C043081F70E94480D9C8181E0D3
:101C3000992319F0903219F48FEF80931B01809152
:101C40001B01890F8C83DF91CF911F910F91FF9022
:101C5000EF90DF90CF90BF90AF909F908F900895BE
:101C600025E530E0A901481B590BCA019A01220F52
:101C7000331F280F391F37FFBBCF2F5F3F4FB8CF20
:101C80008F2DC6CF0F931F93CF93DF93C0E4D2E085
:101C9000FE01118210821282339682E0EC34F80742
:101CA000C1F710E000E080913E02082E000C990B75
:101CB000081719078CF180911A01082E000C990B56
:101CC000801791074CF19E0140914F0260914E02A6
:101CD00080914D020E94F8050F5F1F4F239604303C
:101CE000110509F70E94480D8091190190913E025B
:101CF000980F90933E0220911A01280F20931A0109
:101D0000121614F493301CF0819580931901DF9121
:101D1000CF911F910F910895198218821A82DCCFFA
:101D2000CF92DF92EF92FF920F931F93CF93DF93A7
:101D3000FC018281DD24DA9480FD02C0DD24D3948D
:101D4000C0E4D2E010E000E0198218821A8294E028
:101D5000E92EF12CC12C80913D028C0D8530CCF107
:101D60008370082E000C990B8017910791F48091D5
:101D70004F028E9DA0018F9D500D112455954795C2
:101D8000559547959E0160914E0280914D020E94AB
:101D9000F805CD0CF1E0EF1AF108E9F60F5F1F4FDF
:101DA00023960430110581F60E94480D80913D0272
:101DB00091E0D91214C0811110C083E080933D02DC
:101DC000DF91CF911F910F91FF90EF90DF90CF9017
:101DD000089587FFC6CF8C5FC4CF8150EFCF90E0CE
:101DE000019683709927EACFEF92FF921F93CF93CA
:101DF000DF93EC0180E4E82E82E0F82E10E08C8185
:101E0000970140914F0260914E02810F0E94F805A8
:101E1000115C83E0E80EF11C1C3F89F70E94480D1D
:101E20009A818C8190FF08C08F5F8C83DF91CF9166
:101E30001F91FF90EF9008958150F7CF90914C0241
:101E400090FF0CC0E0E4F2E081836083428333962C
:101E500092E0EC34F907C1F70C94480D08950F9304
:101E60001F93CF93DF9300D00F92CDB7DEB78C01D5
:101E700080913F0281110AC09E012F5F3F4F4FEFBB
:101E80006FEF0E94F8058A8180933F02F801648118
:101E9000613069F080913F0240E0662361F040E0EC
:101EA000623011F440913F0280E060E004C0609134
:101EB0003F0240E080E00E941E0FF801848190E024
:101EC000019663E070E00E94B53184830F900F901B
:101ED0000F90DF91CF911F910F910895CF93DF93D2
:101EE00000D00F92CDB7DEB790914C0290FF0AC0A0
:101EF0009E012F5F3F4F0E94F8054B8169818A81C7
:101F00000E941E0F0F900F900F90DF91CF910895B8
:101F1000CF93DF93EC01ECE4F2E0438162818C81AA
:101F20000E946E0F8C818F5F8C83DF91CF9108951B
:101F3000CF93DF93EC01EC81F0E0E359FB4F449148
:101F4000ECE4F2E0628181810E946E0F8C818F5FF0
:101F50008C83DF91CF910895CF93C82F882309F404
:101F6000AEC08238C1F40E94980581FDA8C089E303
:101F70000E94D60A0E94DF092FEF81EE94E02150E3
:101F800080409040E1F700C0000089E30E94AB0A66
:101F9000CF910C94DF098338A1F40E94980580FD4D
:101FA0008EC083E50E94D60A0E94DF092FEF81EEE2
:101FB00094E0215080409040E1F700C0000083E5AC
:101FC000E5CF8438A1F40E94980582FD78C087E4AB
:101FD0000E94D60A0E94DF092FEF81EE94E0215083
:101FE00080409040E1F700C0000087E4CFCF8CEF45
:101FF0008C0F813A88F580911D01882301F1809131
:10200000200487FF1CC0EC2FE695E695E695F0E0EE
:10201000EA56FE4F828190E04C2F477021E030E07D
:1020200002C0220F331F4A95E2F782239323892BA4
:1020300079F08C2F0E94AB0A0E94DF0909C0E8E901
:10204000F1E08191C817A9F321E0EE39F207C9F751
:102050008C2F0E94D60A9CCF80E28C0F883068F4C7
:10206000C77021E030E001C0220FCA95EAF78091E5
:102070006103822B809361038BCFEBE5EC0FE330A0
:1020800040F4F0E0EA5DFE4F808190E0CF910C9447
:102090008205E8E5EC0FE73150F4F0E0EE0FFF1FAA
:1020A000E75DFE4F80819181CF910C946C05C03F1C
:1020B00030F08C2F0E947A07CF910C948E06CF912E
:1020C00008951F93CF93DF93182FD0E0C0E089339A
:1020D00011F4C0E5D0E0812F0E94AC0F209731F4BD
:1020E000812FDF91CF911F910C940A0C8FE99FE013
:1020F0000197F1F700C000002197F0CF0F931F93D5
:10210000CF93DF93C62FD42F022FFC018281882327
:10211000A1F0609357040E94600590935604809349
:102120005504C77081E001C0880FCA95EAF7DF91B6
:10213000CF911F910F910C94000C8091570468135C
:1021400035C080915504909156040E945105883CF9
:10215000910560F510E21D0FCD17B9F080E28C0FEC
:10216000883040F4C77081E001C0880FCA95EAF753
:102170000E94F90B183048F481E09D2F977001C040
:10218000880F9A95EAF70E94000C802F0E94611038
:10219000183098F4D77081E001C0880FDA95EAF71B
:1021A000DF91CF911F910F910C94F90BC77081E0D3
:1021B00001C0880FCA95EAF7F3CFDF91CF911F9145
:1021C0000F910895AF92BF92CF92DF92EF92FF925C
:1021D0000F931F93CF93DF93EC018AE0A82E288101
:1021E000222309F48CC02130C9F599818A8191306C
:1021F00021F422960E94611005C0923029F42296A3
:102200000E94AC0F2196EBCF933021F422960E94CE
:102210000A0CF8CF943011F02196F4CF229630E0DA
:1022200020E0AE014F5F5F4F8053990B8A309105DC
:1022300050F02150310930F38FE99FE00197F1F719
:1022400000C00000F6CFA29EB001A39E700D112425
:102250009C01260F371F8981EA01E3CFE22FF0E0CE
:10226000E650FE4FB490822F86958695869590E035
:10227000FC01E651FE4FE4902770F12C022E02C0C3
:10228000F594E7940A94E2F731E0E322FF24FC019D
:10229000E652FE4FC490D12C022E02C0D594C794B2
:1022A0000A94E2F731E0C322DD24FC01E653FE4F3D
:1022B000049110E002C0159507952A95E2F7017088
:1022C0001127E114F10419F081EE0E94AC0FC11442
:1022D000D10419F086EE0E94AC0F8B2D0E94611084
:1022E000CD2819F086EE0E940A0CEF2819F081EE35
:1022F0000E940A0C012B09F485CF8CE27BCFDF9181
:10230000CF911F910F91FF90EF90DF90CF90BF90F2
:10231000AF900895CF93DF93C7E4D1E060E0CE01A2
:102320000E9477322196C11584E0D807B9F7DF9172
:10233000CF9108950F931F93CF93DF93890184303A
:1023400058F5643048F5443038F501152CE512078E
:1023500031F42091B3023091B402232BE9F098E0DC
:10236000699FE001112450E0440F551FC40FD51F91
:1023700020E2829FC0011124C80FD91F612FCE0116
:1023800087960E947732602FCE018896DF91CF9199
:102390001F910F910C947732DF91CF911F910F9184
:1023A0000895CF93C82F6FEF81116BE783E290E020
:1023B0000E9477326FEFC11167E584E290E00E94DE
:1023C00077326FEFC11168E685E290E0CF910C940F
:1023D0007732CF93C0912104C2FB992790F99817C7
:1023E00099F080FBC2F9C09321046091200484E03D
:1023F00090E00E9477326C2F82E290E00E94773268
:1024000082E0CF910C94A70BCF9108957F928F9289
:102410009F92AF92BF92CF92DF92EF92FF920F9373
:102420001F93CF93DF93CDB7DEB764970FB6F894C1
:10243000DEBF0FBECDBFA090B302B090B40281E06A
:1024400090E09093B4028093B3028DE6C82E85E0AD
:10245000D82E00E0760110E015C0F40125913491EA
:10246000472D612F802F0E949A1182E0880E911CC7
:102470007394E4E07E12F1CFF8E0EF0EF11C1F5FE1
:10248000143019F04701712CE8CF0F5F80E2C80EBD
:10249000D11C0430F9F61A8219821C821B821E821A
:1024A0001D8218861F8288EC90E09A87898707EA48
:1024B00010E04AE050E0B801CE0101960E949B3244
:1024C000065F1F4F073F1105A1F77E01EBE0EE0EFF
:1024D000F11C8AE0F70111928A95E9F74AE050E091
:1024E000B801C7010E949B32065F1F4F0734F1E01D
:1024F0001F07A1F7B092B402A092B30264960FB680
:10250000F894DEBF0FBECDBFDF91CF911F910F9129
:10251000FF90EF90DF90CF90BF90AF909F908F9003
:102520007F90089580E00E94D11160E086E290E003
:102530000E9477320E9406120E948A1181E00C9458
:10254000D1119B01883070F49AE0899FB001112469
:1025500069557F4F4AE050E0C9010E94533290E034
:1025600080E008958FEF9FEF08958F929F92AF9232
:10257000BF92CF92DF92EF92FF920F931F93CF9370
:10258000DF93CDB7DEB72A970FB6F894DEBF0FBE44
:10259000CDBF05E613E0F12CE12C83E1C82E87E2E4
:1025A000D82E9DE3A92E97E2B92E2FE6822E26E2A1
:1025B000922EF801D182C082B382A2829582848257
:1025C000F58AE48ABE016F5F7F4F8E2D0E94A112B3
:1025D000892B29F489859A85F801938B828BFFEFEB
:1025E000EF1AFF0A0A5E1F4F88E0E816F10409F7A8
:1025F0002A960FB6F894DEBF0FBECDBFDF91CF9104
:102600001F910F91FF90EF90DF90CF90BF90AF9010
:102610009F908F9008950F931F93CF93DF938430F3
:1026200038F5643028F5443018F528E0629F8001C1
:10263000112450E0440F551F040F151F30E2839FF3
:10264000C0011124080F191FC80187960E94633228
:10265000C82FD0E0DC2FCC27C80188960E946332B7
:102660009E01282BC901DF91CF911F910F910895F1
:1026700090E080E0F8CF462F2091B7023091B80269
:10268000232B91F47E3F39F46E3F71F48091B502B3
:102690009091B6020895843038F4743028F4643090
:1026A00018F4672F0C940B1390E080E00895CF92FC
:1026B000DF92FF920F931F93CF93DF936C010091F2
:1026C000540480910F02082BC7E0D0E010E0FC2EEC
:1026D000C8010C2E02C0959587950A94E2F780FDFB
:1026E0000CC02197A0F7F12C8F2DDF91CF911F9176
:1026F0000F91FF90DF90CF900895B6018C2F0E942C
:102700003B130E943E08019761F3EECFCF93DF9316
:10271000EC010E945713BE010E943B13DF91CF9141
:102720000C943E08FC0186819781009779F00E9405
:102730003E08292F2F7092959F7092509E30A0F4E2
:10274000E92FF0E0EB54FD4C0C94EB31808191814A
:102750000E948613EECF803F19F020F4883E20F4CB
:1027600081E00895843FE1F380E00895883EC0F35E
:10277000813FD1F7F5CF822F86958695869508956E
:102780001F93CF93DF9300D000D00F92CDB7DEB769
:10279000FC01268137812115310541F525E0DE0157
:1027A000119601900D922A95E1F7FC012281898111
:1027B0009A812223B9F06623A9F00E945713182F9B
:1027C000682F89819A810E94400B69817A81812FCB
:1027D0000F900F900F900F900F90DF91CF911F915E
:1027E0000C943B130E94140B182FEFCFC9010F90CC
:1027F0000F900F900F900F90DF91CF911F91089540
:1028000083E290E00E9463328B3789F484E290E0A7
:102810000E946332873559F485E290E00E9463326A
:1028200091E0883609F090E0892F8170089580E06A
:10283000FCCFCF9384E090E00E946332C82F82E205
:1028400090E00E946332982F8C2FCF910895CF9201
:10285000DF92EF92FF920F931F93CF93DF93CDB749
:10286000DEB72A970FB6F894DEBF0FBECDBFE3E602
:10287000F2E080E5DF011D928A95E9F7EDE1F3E0F2
:1028800088E3DF011D928A95E9F783E6C82E82E08E
:10289000D82E7F0107EF10E0F701D182C0824AE015
:1028A00050E0B801CE0101960E94533288E0FE014B
:1028B0003196D60101900D928A95E1F789859A8526
:1028C000D70113969C938E931297BAE0CB0ED11C2E
:1028D000E7E0EE0EF11C065F1F4F0734F1E01F0723
:1028E000D9F62A960FB6F894DEBF0FBECDBFDF91A2
:1028F000CF911F910F91FF90EF90DF90CF900895AF
:102900001092610380911D01E8E9F1E0882359F0FC
:102910008091200487FF07C08EE1DF011D928A9518
:10292000E9F70C946F0B86E0F8CF1F93CF93DF93FA
:10293000CDB7DEB7AA970FB6F894DEBF0FBECDBFF6
:102940008BE494E02091F100DC012D93CD01B4E003
:1029500083359B07B9F780914C04833009F472C02A
:10296000B8F4813009F449C0823009F4B3C08091D1
:10297000E80083FF96C280914B0490914C049A30FA
:1029800008F08FC2E92FF0E0ED53FD4C0C94EB31D1
:102990008A3009F48EC08B3009F471C0893039F760
:1029A00080914B04813219F780914F04909150042B
:1029B000009711F00297D9F68091E800877F809305
:1029C000E8008091E80082FF38C09091F300809188
:1029D000F200029731F48091F100813011F08630DD
:1029E00021F48091F100809327048091E8008B7797
:1029F0008093E8000E943D04BACF80914B04813A55
:102A000009F0B5CF8091E800877F8093E80080913E
:102A10004F0490915004892B61F460E288E294E0C5
:102A200070E00E94EF048091E8008B778093E800CB
:102A30009ECF60E090E080E0F3CF8091530481115D
:102A4000C0CF95CF80914B04813A09F090CF80910F
:102A50004F0490915004892B09F089CF8091E800B0
:102A6000877F8093E8008091E80080FFFCCF809111
:102A70001D018093F1008091E8008E77B9CF80919D
:102A80004B04813209F073CF80914F049091500430
:102A9000892B09F06CCF8091E800877F8093E80054
:102AA0000E943D0480914D0480931D010E9480147A
:102AB0005ECF80914B04813209F059CF8091E800BC
:102AC000877F8093E8000E943D0480914E048093AC
:102AD00026044DCF80914B04813A09F048CF809174
:102AE000E800877F8093E8008091E80080FFFCCFBA
:102AF00080912604BECF803899F0823809F0D1C188
:102B000080914F048F70873008F0CBC18093E9002B
:102B10008091EB0085FB882780F91092E90006C0C0
:102B20008091480490914904911182609091E8004D
:102B3000977F9093E8008093F1001092F1008091CC
:102B4000E8008E77AAC1882309F498C1823009F081
:102B5000A8C180914D0481119BC180914F048F7059
:102B60002FEF280F263008F09CC18093E9002091B8
:102B7000EB0020FF8DC1933031F48091EB00806237
:102B80008093EB0085C19091EB0090619093EB00F6
:102B900021E030E001C0220F8A95EAF72093EA0095
:102BA0001092EA008091EB008860EACF811179C130
:102BB00010914D041F778091E3008078812B8093E2
:102BC000E3008091E800877F8093E8000E943D0445
:102BD0008091E80080FFFCCF8091E30080688093C3
:102BE000E30082E0111183E0809353045AC18058BE
:102BF000823008F056C120914D0430914E042C3D96
:102C0000E3E03E07A1F583E08A838AE289834FB738
:102C1000F894DE01139620E03EE051E2E32FF0E06D
:102C200050935700E49120FF03C0E295EF703F5F9F
:102C3000EF708E2F90E0EA30C0F0C7968D939D9391
:102C40002F5F243159F74FBF8091E800877F809331
:102C5000E8006AE270E0CE0101960E94EF048091E4
:102C6000E8008B778093E8001CC1C096E7CF809185
:102C70004F0490915004432F55274330510509F4D8
:102C80004AC078F54130510509F485C08BE590E0E4
:102C9000EDEEF5E04230510509F003C12091E80066
:102CA000277F2093E800209151043091520482172D
:102CB000930708F49C0140E02115310509F070C02C
:102CC00041116EC08091E80082FDC9CF809153040C
:102CD000882329F2853019F28091E80083FFF2CF32
:102CE000BECF4132510509F447C04232510509F0C7
:102CF000D8C08330910508F0D4C0FC01EE0FFF1F4F
:102D0000E957FE4F0190F081E02D8C579E4FDC017A
:102D10008C9190E01DC0332721303105E9F0211559
:102D2000310579F022303105F9F02330310509F011
:102D3000B8C0EAE5F6E0E4918E2F90E0EAE5F6E02F
:102D400007C0E0EAF6E0E4918E2F90E0E0EAF6E0DA
:102D5000009709F4A6C0A2CFEAE8F6E0E4918E2F2E
:102D600090E0EAE8F6E0F4CFE8E7F6E0E4918E2FB1
:102D700090E0E8E7F6E0ECCF8330910508F091C0F1
:102D8000880F991FFC01E357FE4F0190F081E02D61
:102D900089E090E083CF82E190E0E8E4F6E07ECF46
:102DA00080915304882309F45ACF853009F457CF12
:102DB0008091E80083FD53CF8091E80082FD82CFAF
:102DC0008091E80080FF78CF9091F3008091F2002D
:102DD0002115310519F08830910550F041E0089730
:102DE00009F040E08091E8008E778093E80064CF9E
:102DF00044914093F1003196215031090196E8CF7A
:102E0000803809F04EC08091E800877F8093E80009
:102E100080914A048093F10092CE811142C01091BA
:102E20004D041230F0F58091E800877F8093E80030
:102E300010934A040E943D04112311F084E005C060
:102E40008091E30087FDFACF81E08093530442E054
:102E500061EC81E00E945C0442E261EC84E00E944B
:102E60005C0442E261EC82E00E945C0442E260ECBD
:102E700083E00E945C048091530413C080914D0450
:102E8000813079F481E0933009F080E08093490447
:102E90001092E9008091E800877F8093E8000E940B
:102EA0003D048091E80083FF0AC08091E800877F9D
:102EB0008093E8008091EB0080628093EB00AA96FB
:102EC0000FB6F894DEBF0FBECDBFDF91CF911F913B
:102ED000089560914C02669570E04BE050E08EE002
:102EE00091E00E943232892B19F481E080933C02F8
:102EF0000E94600590933602809335020895CF9228
:102F0000DF92EF92FF926B017C010E94E905B7010D
:102F1000A60188E090E0FF90EF90DF90CF900C94B6
:102F200089327F928F929F92AF92BF92CF92DF921F
:102F3000EF92FF920F931F93CF93DF9300D00F92E6
:102F4000CDB7DEB7182FD62E042FC22E90914C028B
:102F500090FF29C0E92FE695AE2FB0E0A15ABE4FF1
:102F60008C9180933B029E7F923071F59E012F5F82
:102F70003F4F812F0E94F8054B8169818A810E9411
:102F80001E0F10934D02D0924E0200934F02CC20A0
:102F900051F060914C0270914D0280914E029091DF
:102FA0004F020E947F170F900F900F90DF91CF91EB
:102FB0001F910F91FF90EF90DF90CF90BF90AF9057
:102FC0009F908F907F900895823019F400914F0266
:102FD000D8CF863019F410914D02D3CF8930D9F370
:102FE000893179F6E9512E2F2170722EE695F0E0A5
:102FF000E859FB4F85909490992430E4E32E32E019
:10300000F32EB12CA12CC5019695879596958795A1
:10301000711013C0810F9701402F6D2D0E94F8058C
:10302000A80CB91C83E0E80EF11C2CE4E21622E0A7
:10303000F20649F70E94480DA4CF212F281B822FAA
:10304000EACFECE4F2E0438128E0421B08F440E0E0
:1030500021E0628181810C949117ECE4F2E04381DC
:1030600028E0420F08F44FEF21E0628181810C9447
:103070009117ECE4F2E0628128E0621B08F460E062
:1030800021E0438181810C949117ECE4F2E06281AC
:1030900028E0620F08F46FEF21E0438181810C94F6
:1030A0009117ECE4F2E0818121E043816281885054
:1030B0000C949117ECE4F2E0818121E0438162817C
:1030C000885F0C94911780915002882319F08150E9
:1030D0008093500260914C0270914D0280914E029B
:1030E00090914F020C947F1780915002833018F416
:1030F0008F5F8093500260914C0270914D028091DD
:103100004E0290914F020C947F1790914C0290FFC9
:1031100036C09170811129C0926090934C02662351
:1031200051F060914C0270914D0280914E0290914D
:103130004F020E947F1760914C02669570E04BE051
:1031400050E08EE091E00E943232892BA9F010927B
:103150003C0281E08093380220E040914F02609170
:103160004E0280914D020C949117853210F09864B4
:10317000D4CF880F982BD1CF0E946917EACF08953A
:1031800080914C028695815009F484E261E00C94B0
:10319000851880914C0286958F5F853208F081E01A
:1031A00061E00C94851890914C0290FF07C09695B1
:1031B000981720F0961710F40C94C91861E00C943D
:1031C0008518ECE4F2E083E0808311828FEF828344
:1031D0008383148260817181828193810C947F1733
:1031E0006AEE7EEF90E080E00E94953260E082E03F
:1031F00090E00E94773260E083E090E00E947732B6
:1032000010920F0260E084E090E00E94773260E06C
:1032100082E290E00E94773260E085E090E00E94D8
:10322000773260E086E090E00E9477326FEF87E0CF
:1032300090E00E94773240E050E0BA0188E090E0F0
:103240000E94893260E08DE090E00E94773240E099
:1032500050E0BA0188E190E00E94893260E087E1A5
:1032600090E00E94773240E050E0BA018CE190E0BB
:103270000E94893270E060E080E290E00E94953226
:1032800040E050E0BA0188E190E00E94893280E09D
:103290000E94D1110E94921240E050E0BA018FE0EA
:1032A00090E00E94893240E050E0BA0183E190E072
:1032B0000C9489328F929F92AF92BF92CF92DF92FD
:1032C000EF92FF920F931F93CF93DF9300D000D024
:1032D000CDB7DEB77C01DC0113968D919C911497DC
:1032E000892B39F08C9111969C9189238F3F09F09D
:1032F000CEC50F900F900F900F90DF91CF911F913F
:103300000F91FF90EF90DF90CF90BF90AF909F9084
:103310008F900895D60116968C9116978823D1F038
:1033200019968D919C910817190739F480916303C0
:10333000909164030817190769F0F60197861487BE
:103340000387C6010E947A0AC60106960E94350AC2
:1033500010926203FFEFAF1ABF0A26E1C20ED11C22
:10336000AEC5980122513F452031310508F05FC5B7
:103370008FEF93E00E9463324EEED42ED00E07E41E
:1033800011E08823F1F080910A02877009F4B1CF2F
:10339000F7018281882309F4ACCF8091210482FD5A
:1033A000A8CF82E00E94A70BA4CF011534E0130739
:1033B00051F3C8010E946332811101C0DA940F5F9A
:1033C0001F4FD110F2CF19821A821B821C82CC248B
:1033D000CA9448014FEF841A940AC8010E946332CC
:1033E00089831A82882379F2813009F048C0580114
:1033F00052E0A50EB11CC4010E946332982E8A834C
:10340000882309F4C0CFC5010E946332D82E8FEF04
:10341000890D833068F4580183E0A80EB11CDB826B
:10342000DD2021F0CE0101960E94E2108501D1CF6E
:1034300094E09912FBCF5801A4E0AA0EB11CC80178
:1034400003960E946332DD2009F49DCF882309F49E
:103450009ACF8150990BC89E9001C99E300D1124BE
:10346000ED2DE150FF0BCF01820F931F0197F0F27A
:10347000AFE9BFE01197F1F700C00000F7CFCE0130
:1034800001960E94E2105401D1CF81E00E94C30B4B
:103490000E94900B78CF81E00E949B0BF9CF82E0D5
:1034A000F5CF2FEFC216D10411F008F0D6C469E5AC
:1034B00072E08C2D0E94A112892B29F586E18C9D4A
:1034C000F0018D9DF00D1124EB59FC4F8681813068
:1034D00009F0AEC08091590290915A02892B99F05F
:1034E00080915B0290915C02892B69F080915D0272
:1034F00090915E0220915F0230916002822B932BAB
:10350000892B09F49FC080910001909101018C15D5
:103510009D0524F4D0920101C0920001F70182813F
:1035200096E19C9D50019D9DB00C112495012B5955
:103530003C4F6901D90150968C9350979281169611
:103540008C911697992309F48BC01A961C930E93AD
:1035500019978F5F16968C930E946005F6019687E7
:10356000858780910E028783809162039091610329
:10357000892B80870190F081E02D309741F0D601B2
:1035800054966D917C91C50185599C4F0995109376
:10359000640300936303F7018281882309F4A7C4BD
:1035A000109257040330FDE51F0708F08BC00A3F57
:1035B0002CE5120730F4C80182509C45449708F06E
:1035C00086C00E9419149093210480932004003136
:1035D0004CE5140709F44CC108F0C8C008308CE56C
:1035E000180709F433C108F09AC00430ACE51A0793
:1035F00009F41EC108F080C00230ECE51E0709F492
:1036000011C180912004826003301C4509F40DC172
:10361000609120041091210484E090E00E947732B0
:10362000612F82E290E00E9477320E948014ABCE3C
:10363000823009F068CF80915D0290915E02892B03
:1036400009F461CF26E12C9DC0012D9D900D112420
:103650008B599C4FDC0150961C920E947A0A53CFE2
:10366000882309F498CFF9018189882309F493CF3D
:10367000C50185599C4F0E94350A8DCF053F8CE5C9
:103680001807C9F0A0F027E245EE66EE063FACE56C
:103690001A0709F080CFC7010E947E1074CE27E27E
:1036A00045EE65EEF8CF26E241EE60EEF4CF27E27C
:1036B00045EE64EEF0CF26E241EE62EEECCF28E27A
:1036C00041E0EFCF01363DE5130709F47ACF809151
:1036D000610306319CE5190709F014C48A7A91E068
:1036E00009F490E09093B6018111E7C089E20E944D
:1036F000D60A0E94DF0947CE8091200480610630FF
:103700002CE5120709F491C08091200488600730ED
:103710001C4508F48AC080912004806286C0809194
:1037200020048D7F0C304CE5140709F47EC058F45A
:103730000A308CE5180709F493C008F48BC0809117
:1037400020048E7F72C080912004877F0E30ACE50C
:103750001A0709F46AC0809120048B7F0F301C4542
:1037600008F463C0809120048F7E5FC00C3FECE5BD
:103770001E0709F479C068F504312CE5120709F435
:103780008BC080F402314CE5140709F475C08091B8
:1037900020048F7B03311C4508F447C0809120042E
:1037A000837F43C00A3F8CE5180709F445C008F041
:1037B00049C005311C4509F02BCF8091200482FBC4
:1037C000992790F921E0922790FB82F990FB83F9E9
:1037D0002CC00115BDE51B0709F454C088F4809185
:1037E000210483600E3FFCE51F0749F1809121040D
:1037F0008D7F0F3F1C4518F1809121048C7F1FC0E5
:1038000002303DE5130709F456C008F44EC00136F6
:103810001D4509F0FDCE90912004892F8F7E94FFE5
:10382000806103C080912004816080932004F0CEE9
:10383000809120048460F9CF80912104816080937D
:103840002104E6CE809121048260F9CF809120048A
:103850008064EBCF0E948014809120048068E5CFC3
:10386000809120048C60E1CF809121048E7FE7CF8E
:10387000809120048F7DD9CF0E94801480912004F4
:103880008F77D3CF80912104982F909591708E7F60
:10389000892B90FB81F9D3CF0E9480149091200452
:1038A000892F97FB87F98058C0CF61E08EE090E0C8
:1038B0000E947732ADCE60E0F9CF85E318CF85E383
:1038C0001EC380914C0280FF1BC08E7F80934C02F0
:1038D00060914C0270914D0280914E0290914F0286
:1038E0000E947F1710923C02AFEFB0E7E2E0A150D8
:1038F000B040E040E1F700C000000E94480D43CD19
:10390000816080934C0261E086950E9485183BCDD2
:1039100040EC58E169EC78E10E94E30534CD49ECD4
:1039200058E160EC78E1F8CF4AE558E161E578E1EB
:10393000F3CF49E358E165E478E1EECF41E258E1A5
:103940006DE278E1E9CF4DE258E161E278E1E4CF60
:1039500044E758E163E678E1DFCF61E081E0D5CF6D
:1039600065E082E00E94D3180ECD68E086E0FACFD1
:1039700064E18FE0F7CF67E185E1F4CF62E289E1AE
:10398000F1CF61E083E2C1CF0B355DE5150701F1B1
:103990000C351D4509F0E1C28091210482FB882786
:1039A00080F991E089270E94E911D7C20E94801412
:1039B0009FEFA4E3BCE09150A040B040E1F700C00D
:1039C00000000E94240D0E94F018DDCC81E0EBCFB6
:1039D00080E0E9CFF701828100811181882369F0BD
:1039E000C8010E945713D82E682FC8010E94400BAF
:1039F000B8018D2D0E943B13B7C2C8010E94140B61
:103A0000D82EF6CFE12FEF70DE2E107F19F0D29472
:103A100090EFD922CC20B9F0DD2069F080E2800F50
:103A2000883010F0011109C080916103D82AD0922A
:103A300061030E94DF09802F4AC080916203D82A67
:103A4000D0926203F6CF802F0E940A0CDD2009F489
:103A500040C080E2800F883010F0011104C08D2D2D
:103A60000E94D80903C08D2D0E94D1090E94DF0950
:103A700030C0F12FFF70DF2E107F103219F0D2947A
:103A800080EFD822002399F0013009F48DC0CC20BA
:103A900009F496C0BB2009F46BC0D70115968C9130
:103AA000159780FFC8CF8F7015968C9361C0809159
:103AB000210482FF38C0CC2081F1DD2039F08091D3
:103AC0006103D82AD09261030E94DF0980E00E943E
:103AD000AC0FE92DE850FF0B349710F40E949805C5
:103AE000AA20B1F080910A0280FD12C0D70112967F
:103AF0001C928595859585950E94C30BC7010E94F0
:103B00005A1980910A028595859585950E949B0B8F
:103B100060E0C7010E94C013ECCB80E00E940A0C59
:103B2000DD20B9F29CCFCC2039F1B11004C08091D6
:103B30000E028D291EC021E0B21210C082FDC9CF35
:103B400080910E02D82AD81621F20E946005909327
:103B50000D0280930C02D0920E02BBCF35E0B3125F
:103B6000E6CF0E94C60980910702D812D0920702C0
:103B70008D2D0E94000CADCFB11006C00E94C60969
:103B80008D2D0E94F90BA5CF41E0B41208C08091A1
:103B900061038D2109F49DCF0E94A50AEFCF55E066
:103BA000B51609F496CFEACFCC2029F085E08B1525
:103BB00008F48FCFDDCF94E09B1508F48ACFE0CFD7
:103BC000BB20F1F2093349F4BFEFE7EEF3E0B15067
:103BD000E040F040E1F700C00000802F0E940A0C96
:103BE00078CF812F86958695837061F0813009F0BA
:103BF00070CFC8019370C11002C090E080E00E94B5
:103C00006C0567CFC8019370C11002C090E080E0DE
:103C10000E9482055ECF802FCC2029F00E947A0777
:103C20000E948E0656CF0E94B506FACF812F837070
:103C300089F5C1104ECF402F429546954770440FED
:103C4000440F802F8F70042E01C0880F0A94EAF76A
:103C5000202F207104FF07C02FE030E001C0220FA9
:103C60004A95EAF72095169516951370123069F06B
:103C700050F430910F02113029F0822B83230E94DF
:103C8000E40B27CF832B822BFACF282B80910F02B6
:103C90008227F5CF8695CC2011F0812F8170882363
:103CA00009F417CF402F429546954770440F440FB3
:103CB000802F8F70042E01C0880F0A94EAF7202FFE
:103CC000207104FF07C02FE030E001C0220F4A95A9
:103CD000EAF72095169516951370123069F050F496
:103CE00030915404113029F0822B83230E948C0BD5
:103CF000F0CE832B822BFACF282B8091540482277D
:103D0000F5CF1F70CC2029F0812F0E94C30B802F8C
:103D100030CF802F0E94F90B812F0E949B0BD9CEB0
:103D2000023F81F160F4003FB9F0013F81F0CC2007
:103D300009F46DC0B1107FCE812F8F7127C0033F72
:103D400041F1043FA1F78091210482FF2DC0812F12
:103D50008F71CC2011F31AC0CC2079F024E02B1500
:103D600008F4B7CE1F7181E090E001C0880F1A956A
:103D7000EAF7909154048927B9CF35E03B1508F450
:103D8000A8CEF0CF812F8F71C110C7CF0E94C30B77
:103D9000A0CE80E0CC2009F4A9CF1F7181E001C042
:103DA000880F1A95EAF7A2CF80910702CC20D9F0AC
:103DB0000E94D80980910A028770843041F40E94E1
:103DC0009E0A812F8F710E949B0BA12C82CE44E012
:103DD0004B15D8F31F71812F0E94C30B63E0812F15
:103DE0000E94CE0BF2CF90916103982B90936103C8
:103DF00054E05B1540F40E949E0A0E94A50A64E00C
:103E0000812F8F71EDCF81E00E94A70BDECFBB2009
:103E100059F0093309F0E1CE8FEF97EEA3E081501E
:103E20009040A040E1F7D7CE812F8F7176CF00313F
:103E3000BFE51B0709F429CB0131EFE51E0709F4A3
:103E40002ECB6801E7E5DE1A882309F42ACBFFEFC1
:103E5000CF16D10409F008F456CB033FFCE51F0749
:103E600009F421CC08F00ACC083D3CE5130709F41D
:103E700016CC093D4CE5140709F421CC073D5CE55F
:103E8000150709F088CB26E241EE61EE04CC61E033
:103E9000C7010E94C0138C01D70112968C91882310
:103EA000B1F08091000190910101019681F055E6F9
:103EB000C52E53E0D52EB12CA12C9924939480913A
:103EC0000001909101018A159B050CF023CAF701AE
:103ED0008281811146CA0031FFE51F0709F4DBCA60
:103EE00001312FE5120709F0ACCF82E0D5CA0631C7
:103EF0001C4599F58091B6018111E1CC89E20E94BF
:103F0000AB0AF7CB82720C3CECE51E0709F420CD1E
:103F100008F094C0063C2CE5120709F405CD08F022
:103F200069C0033C4CE5140709F4F2CC08F053C017
:103F3000023C8CE5180709F4C4CC0A35FDE51F07DF
:103F400009F444CD08F020CD01153CE5130709F430
:103F50002DCD0E3D1C4509F436CDD70116968D9119
:103F60009C91009709F436CD0E943E088C01D70140
:103F70001296CC9012971596BC90B2943FE0B32263
:103F800080910A028770C1F0AC2CCC20B1F0812F57
:103F9000807F803421F080E2800F883068F080914B
:103FA000210482FD09C082E00E94A70B80910A02D1
:103FB0008770AA24A3948111A12C912E92942FE0B2
:103FC0009222BBE0B91508F484CDE92DF0E0E3536B
:103FD000FD4C0C94EB31043C9CE5190709F49FCC93
:103FE00041E558E16AE578E1053CACE51A0709F4DA
:103FF00093CCA3CF093CBCE51B0709F49FCC78F414
:10400000073CFCE51F0709F494CC45E458E169E35B
:1040100078E1083C2CE5120709F47ECC8ECF0A3CEF
:104020003CE5130709F48FCC0B3C4CE5140709F071
:1040300084CF43E658E164E778E16ECC013D5CE56E
:10404000150709F495CCA0F40E3C9CE5190709F47A
:1040500087CC08F482CC0F3CBCE51B0709F485CC67
:104060006EE089E0003DECE51E0709F47BCC65CFEE
:10407000043DFCE51F0709F481CC68F4023D3CE5F2
:10408000130709F478CC61E088E1033D4CE514079F
:1040900009F43BCC52CF053D5CE5150709F471CC22
:1040A0000D35100709F46FC948CFCF93DF93809186
:1040B000C201807FA1F48091BF01882381F08091AB
:1040C0000602D091C5016091BD017091BE01A09121
:1040D000C001B091C101C62FC723D81303C0DF911F
:1040E000CF91089590E0109711F0CF3F19F4019609
:1040F0008770F3CF9C0143E0220F331F4A95E1F70D
:10410000F901EA53FE4F41814713F1CF4081461335
:10411000EECF42814111EBCF438154814A1B5B0BAF
:10412000483C510520F78091C2018F7080618093D7
:10413000C201F901E553FE4F80818F708061808359
:104140008DEB91E00E945A19DF91CF910C940A0BEC
:10415000AF92BF92CF92DF92EF92FF920F931F9395
:10416000CF93DF93CDB7DEB765970FB6F894DEBF78
:104170000FBECDBF8C0185E0F801DE0151960190A4
:104180000D928A95E1F7F801E2806DEBA62E61E0D1
:10419000B62E6091C0017091C1016115710509F4DD
:1041A00068C19091BD014091BE01892F84238F3F4A
:1041B00009F45FC120813181C380D480F090BF01B8
:1041C000F601E61BF70BFF2009F41DC18091C20127
:1041D000582F507FE83CF10508F0D0C0511181C044
:1041E000FE2C43132BC0921329C06091C301709120
:1041F000C401F8014681578164177507F9F4E1108D
:104200001DC08F7080618093C201C5010E945A1940
:104210008091C201F80185838F2D65960FB6F894C1
:10422000DEBF0FBECDBFDF91CF911F910F91FF90E9
:10423000EF90DF90CF90BF90AF900895CD2829F0F8
:10424000822F83238F3F09F02FC180E0F82FF17078
:10425000DF2E80FF3CC0809106024091C50184138F
:1042600015C0298B3A8B89899A890E948613292F38
:1042700022952F702230F8F0243020F59F70F9F04D
:10428000F8019581907FD9F4D12C1FC090E0FC01FA
:1042900053E0EE0FFF1F5A95E1F7EA53FE4F5181AD
:1042A000351306C05081251303C05281E5120FC09B
:1042B00001968770D4CF9F7011F0882329F3805E18
:1042C000883010F3C8010E945A19FD2CA5CFEE20AA
:1042D00009F4A2CF8091C20181608093C201F12CC8
:1042E0009BCF43131BC0921319C04091C30150913F
:1042F000C401F801268137814217530779F4E11090
:104300000DC08583C8010E945A1988E0F801ADEB01
:10431000B1E001900D928A95E1F77ECFC8010E942D
:104320009213882339F1EE2029F18091C201803265
:10433000A0F02091BD013091BE013A8729871B86EC
:10434000DD86CC868E878091C3019091C401988BC5
:104350008F87CE0109960E945A1988E0F801ADEBCB
:10436000B1E001900D928A95E1F70E945520FF245B
:10437000F39452CFC8010E945A19F9CF51110AC0C3
:104380008DEB91E00E945A1988E0F50111928A950F
:10439000E9F7A5CF431318C0921316C04091C3018B
:1043A0005091C401F801268137814217530761F407
:1043B000E1100AC08583C8010E945A1988E0F501FE
:1043C00011928A95E9F728CFC8010E949213882399
:1043D00089F2EE2079F28091C201803208F4BDCFDB
:1043E0002091BD013091BE013A8329831B82DD8279
:1043F000CC828E838091C3019091C40198878F8372
:10440000CE010196A8CFE83CF105C0F6FE2CEE20C7
:1044100009F4B0CF43131FC092131DC02091C301F4
:104420003091C401F801868197812817390799F4E2
:104430009091C20190FD69CF907F09F466CF809181
:10444000C2018583903F09F45DCF982F907F905FE4
:104450008F70892B56CFC8010E94921381117DCF96
:104460008091C20181608093C201C8010E945A19E3
:10447000D3CEEE2009F47ECFC8010E949213F82E0D
:10448000882309F477CF88E0F801ADEBB1E0019023
:104490000D928A95E1F78091BD019091BE010E9435
:1044A00086130E945520B8CE81E08E25CFCECF93C3
:1044B000DF93CDB7DEB760970FB6F894DEBF0FBEBF
:1044C000CDBF29873A874B875C876D877E878F872B
:1044D000988BCE0109960E94A820811112C088E015
:1044E000FE013996DE01119601900D928A95E1F751
:1044F0008C859D85892B29F089859A8589238F3F15
:10450000A9F5809106029091C50189131CC060969F
:104510000FB6F894DEBF0FBECDBFDF91CF910895E7
:1045200093E0AA0FBB1F9A95E1F7AA53BE4F98E0FC
:10453000FE01319601900D929A95E1F78093C501A5
:104540000E940A0BDECFB8E08B9FC00111248A5372
:104550009E4F0E94A8208823D1F28091060290E00D
:1045600001968770992780930602CBCFA091C50151
:10457000B0E0CD0101968770992720910602281797
:10458000190671F60E9480141092C501109206025D
:1045900088E0EDEBF1E0DF011D928A95E9F7B1CFFC
:1045A0000F931F93CF93DF938091BC02E091BB02E6
:1045B000CCE081111AC0DF91CF911F910F91089526
:1045C000D1E0DE0FD093BB020E2F10E0EC9FF00184
:1045D0001124E354FD4F83819481892B29F080813C
:1045E000918189238F3F51F4ED2F8091BC02E81710
:1045F00038F31092BC021092BB02DDCFC09FD001F5
:10460000C19FB00D1124A354BD4F16968D919C915E
:104610001797892B29F418968D919C91019651F446
:1046200020813181428153816481758186819781A6
:104630000E945722C09FF001C19FF00D1124E35446
:10464000FD4F14821382D0CF1092600310925F034B
:1046500010921C0180915E0380935D030E94D2053D
:104660000C94D0223F924F925F926F927F928F92E2
:104670009F92AF92BF92CF92DF92EF92FF920F93F1
:104680001F93CF93DF93C0915D0397E0892E01E0E4
:1046900010E02CE0322E3EEF932E44244394809180
:1046A0005E038C1315C00E94D022DF91CF911F9121
:1046B0000F91FF90EF90DF90CF90BF90AF909F90C1
:1046C0008F907F906F905F904F903F900C94D205A9
:1046D000D0E0FE01EE0FFF1FEB5AFC4F808191816D
:1046E000889ED001899EB00D1124A35EBC4F149604
:1046F0002C911497211157C05090BC02EDEBF2E0C1
:1047000030E020E0712C5D01251508F04AC0E284FC
:10471000F384D501CD90DC906FEF7FEF612C462DB7
:1047200050E0DA01AA0FBB1FAC0DBD1D0D90BC916E
:10473000A02D109731F0EA16FB0609F4BA01639434
:10474000EECF6F3F7607A1F1D80102C0AA0FBB1FC1
:104750006A95E2F77A2AB80102C0660F771F6A9459
:10476000E2F7AB014150510974161506F9F4329E77
:10477000F001339EF00D1124E354FD4F889ED001CB
:10478000899EB00D1124A35EBC4F12962D913C91D1
:10479000139737832683908291829187808715961D
:1047A0004C920E94A4052196C37079CF1482138283
:1047B0002F5F3F4F3C96A8CF2F923F924F925F9230
:1047C0006F927F928F929F92AF92BF92CF92DF9221
:1047D000EF92FF920F931F93CF93DF93CDB7DEB786
:1047E00069970FB6F894DEBF0FBECDBF498B5A8BC9
:1047F0006B8B7C8B8D8B6111109262031D861E86E4
:104800001F86188A85E0FE017196DE0119960190D7
:104810000D928A95E1F78091210482FD1CC00E94CF
:1048200060052091080230910902821B930B8838A1
:10483000934120F080910A0282FFFEC10E94600530
:1048400020910C0230910D02821B930B883893410A
:1048500010F00E94C6098C859D85892B31F08985D1
:104860009A8589238F3F09F0D3C129853A854B85E5
:104870005C856D857E858F8598890E945722C2C090
:1048800048EFC4164CE5D40629F4882379F00E9439
:104890002423EBCF69EFC6166CE5D60639F48823DE
:1048A00029F080911C018111F2CFC2C10DE113E00A
:1048B000E12CB12CA12C88248394912C2EEF522E24
:1048C00044244394F8014081518166246A94762CF3
:1048D00020E0822F90E0FC01EE0FFF1FE40FF51F98
:1048E000608171816115710531F0C616D70609F432
:1048F0003C012F5FEECFF12CFFEF6F167F0609F41E
:1049000043C0F8014481F0901C018F2D411180E0DB
:10491000F82FF170FF2EF801258086819B85992361
:1049200009F406C1FF2009F403C1211013C0A4013A
:1049300001C0440F6A94EAF7842B86838091B90200
:104940009091BA02C29730F462E370E07093BA02B9
:104950006093B902C40102C0880F991F2A95E2F73B
:104960000197F80126812817190671F480915F03D9
:1049700090916003009709F45EC00E945105C397AF
:1049800008F459C0F8014482EF28FFEFAF1ABF0ABC
:10499000095F1F4F28E0A216B10409F093CF8B8561
:1049A000882309F420C1EE2009F41DC10E9460058E
:1049B0009093600380935F038091BC02883010F570
:1049C00091E0980F9093BC0298E0FE013996DE01C9
:1049D000119601900D929A95E1F73CE0839FC001FA
:1049E000112483549D4F28E0FE013196DC01019093
:1049F0000D922A95E1F72FEF3FEFFC0131872087D9
:104A0000D386C28669960FB6F894DEBF0FBECDBFBF
:104A1000DF91CF911F910F91FF90EF90DF90CF909A
:104A2000BF90AF909F908F907F906F905F904F90CE
:104A30003F902F90089580915D0350915E03982FD1
:104A4000F0E0E0E0851314C090935D030E171F079C
:104A500009F49ACF90E0FC01EE0FFF1FEB5AFC4FD8
:104A6000B182A08201968370992780935E038CCFD8
:104A7000282E312CF101EE0FFF1FEB5AFC4F208145
:104A80003181F7E0F29FD001F39FB00D1124A35EB6
:104A9000BC4F2D913C911197398F288F40E020E039
:104AA00030E0E32FF0E0EE0FFF1F688D798DE60F09
:104AB000F71F6080718061147104E1F0F8010190CA
:104AC000F081E02DFF8BEE8B20E005C066167706A7
:104AD00009F44F2D2F5FE22FF0E0EE0FFF1F6E89DC
:104AE0007F89E60FF71F608171816115710571F78C
:104AF0003F5FD7CF4423C9F0F801231708F0FD0129
:104B00004482E017F10721F490935D03F42E3CCF2B
:104B1000981305C0EA17FB0711F49F5F937091018A
:104B20002F5F3F4F822F83708DCFF0E0E0E0F7CF13
:104B300090E021101FC0B40102C0660F771F2A95B4
:104B4000E2F79B01215031098217930731F4442386
:104B500009F447C0C5010E94A405C40101C0880F23
:104B60006A94EAF7982F9095F801868189238683C5
:104B7000F22C0ACF9C01062C02C0359527950A9489
:104B8000E2F7A90141705527BC01615071098623E4
:104B90009723892B11F5452B01F1F801828193812F
:104BA000892BC1F01B821C821D821E8259825A826F
:104BB0000E9460058160582F9D838C83F80182815B
:104BC00093818F83988729813A814B816D817E8182
:104BD0000E945722F8011582C0CFF22FF1702F2EBC
:104BE000BCCF2F2CBACF90915D0380915E039817B4
:104BF00031F00E943223EE2009F437CE03CF0E9419
:104C0000D0221092600310925F030E94D205F3CF6E
:104C100061E0CE0109960E94C0136C018B85F7EF0D
:104C2000CF16FCE5DF0609F02BCE882309F43ECE33
:104C300081E080931C0119CE82E00E94A70BFECD7B
:104C40000F931F93CF93DF9300D000D00F92CDB777
:104C5000DEB78C019093B6028093B502011580E215
:104C6000180720F5802F0E940A0CC8010E94600CD2
:104C70009801205E31092830310510F0012B59F4DC
:104C80000F900F900F900F900F90DF91CF911F9189
:104C90000F910C94F90B0F900F900F900F900F90B5
:104CA000DF91CF911F910F910C94E80B8EEF8983C8
:104CB0008A831B820E9460058160782F9D838C838C
:104CC00049815A816B818D810F900F900F900F90C9
:104CD0000F90DF91CF911F910F910C94DC230F93D4
:104CE0001F93CF93DF938C01EB0169E572E08C2F6A
:104CF0000E94A112892B71F4DD27CF5ADD4F8881E4
:104D0000F80110821882833009F148F4813059F09B
:104D1000823081F0DF91CF911F910F9108958430FF
:104D2000D1F08530B9F78091590290915A020097DD
:104D300089F306C080915B0290915C02009799F321
:104D4000DF91CF911F910F910C94202680915D02ED
:104D500090915E02F3CF80915F0290916002009784
:104D600079F72091590230915A0280915B0290911B
:104D70005C0221153105D9F2009711F7C901E0CF86
:104D80000F931F93CF93DF9300D000D00F92CDB736
:104D9000DEB78C019093B6028093B502011580E2D4
:104DA0001807E8F4C8010E94600C9801205E3109E0
:104DB0002830310518F00115110571F40E94000C1E
:104DC000802F0F900F900F900F900F90DF91CF9149
:104DD0001F910F910C94AC0F0E94EF0BF1CF8EEF4F
:104DE00089838A8381E08B830E9460058160782FAC
:104DF0009D838C8349815A816B818D810F900F90A7
:104E00000F900F900F90DF91CF911F910F910C9405
:104E1000DC23CF93DF93EC010E94C026CE01DF910B
:104E2000CF910C9420260F931F93CF93DF938C0187
:104E3000862F69E572E00E94A112892BC9F4C09106
:104E40005902D0915A02209799F0F801808183305D
:104E500069F4CE010E940927CE010E940927CE01E4
:104E6000DF91CF911F910F910C9409278430B8F7EF
:104E7000DF91CF911F910F9108950F931F93CF93BF
:104E8000DF938C01EB0169E572E08C2F0E94A11287
:104E9000892B09F064C0FE01FF27D8018C91EF5ADD
:104EA000FD4F8130D9F419969C911997992311F0EF
:104EB00080830CC01A969C919923D1F382E0808361
:104EC00080915B0290915C020097D9F48091590225
:104ED00090915A02009709F442C013C08230E9F55C
:104EE00019968C91199781112DC01A968C91811168
:104EF0000EC083E0808380915D0290915E020097F6
:104F000019F1DF91CF911F910F910C94C02684E08D
:104F1000808380915F0290916002009791F7809169
:104F2000590290915A020097F9F00E940927809146
:104F30005B0290915C02009721F780915902909159
:104F40005A02DFCF85E080838091590290915A0206
:104F5000009729F00E940927F0CF86E08083DF9137
:104F6000CF911F910F91089580915B0290915C0207
:104F7000B1CF9F92AF92BF92CF92DF92EF92FF920A
:104F80000F931F93CF93DF9300D000D0CDB7DEB740
:104F900019821A821B821C8237E5E32E31E0F32E40
:104FA00010E000E0CC24C394D12C5FE5A52E51E0A5
:104FB000B52EF70181917F018F3F09F445C0F89428
:104FC000E82FE295EF70F0E021A18F70A60102C0FA
:104FD000440F551F8A95E2F7CA01922F982B91A38F
:104FE00092A18095892382A3789400C0EBE5F1E03B
:104FF000912C31E021912F3F09F46CC0A22FA29592
:10500000AF70B0E090968C9190E02F7002C09595B3
:1050100087952A95E2F780FD5DC0832F982A330F8C
:10502000AE16BF0639F7F701319780818F3F11F037
:105030000E94E40750EA5A95F1F7E1E0F0E0EC0F46
:10504000FD1FE00FF11F90820F5F1F4F043011050D
:1050500009F0AFCF44E050E0BE016F5F7F4F83E1C6
:1050600092E00E943F32DD24D394009709F4D12CC2
:10507000892B91F189819A81AB81BC818093130244
:1050800090931402A0931502B093160281E08093CE
:1050900012020E9460059093110280931002809189
:1050A0001002909111020E9451050597C8F080915D
:1050B0001302809324028091140280932502809130
:1050C0001502809326028091160280932702109287
:1050D000120206C080E0A2CF809112028111DFCFC0
:1050E000809100019091010110E006E1019609F024
:1050F00043C080911C01811149C08D2D0F900F90EC
:105100000F900F90DF91CF911F910F91FF90EF9033
:10511000DF90CF90BF90AF909F900895089FF001CF
:10512000099FF00D1124EB59FC4FE288F388E1143C
:10513000F10419F428ECE22EF12C089FF001099FEC
:10514000F00D1124EB59FC4F86818823A1F0858551
:1051500096850E945105E816F90668F4109F7001C3
:105160001124C7018B599C4F0E947A0AC7018559A7
:105170009C4F0E94350A1F5F812F90E02091000113
:1051800030910101281739074CF6B3CF80915F03A6
:1051900090916003009709F4B0CF0E9451052091CF
:1051A000B9023091BA022817390708F0A6CF9091BA
:1051B0005D0380915E03981759F00E94322310928C
:1051C000BA021092B9021092600310925F0395CF59
:1051D0000E94D0221092600310925F030E94D205B9
:1051E0008CCF90E080E00E9471328A3E9E4F11F495
:1051F0000C94001480E008951F920F920FB60F9246
:1052000011242F933F934F935F936F937F938F93CB
:105210009F93AF93BF93CF93DF93EF93FF93D0917F
:10522000E900DF708091EC00C82FC17080FDC0E8FC
:105230001092E9008091F000877F8093F0007894CD
:105240000E9495141092E9008091F000886080938C
:10525000F000CD2BCF70C093E900FF91EF91DF916B
:10526000CF91BF91AF919F918F917F916F915F91FE
:105270004F913F912F910F900FBE0F901F90189557
:105280001F920F920FB60F9211242F933F934F93BB
:105290005F936F937F938F939F93AF93BF93EF939E
:1052A000FF938091E10082FF09C08091E20082FFBC
:1052B00005C08091E1008B7F8093E1008091DA004E
:1052C00080FF24C08091D80080FF20C08091DA0048
:1052D0008E7F8093DA008091D90080FF9DC080E1AD
:1052E00089BD82E189BD09B400FEFDCF81E08093D4
:1052F000530480912504811109C00E949B030E94E0
:105300008E048091E20084608093E2008091E1004D
:1053100080FF17C08091E20080FF13C08091E200FF
:105320008E7F8093E2008091E20080618093E200B2
:105330008091D80080628093D80019BC85E080936A
:1053400053048091E10084FF2BC08091E20084FF30
:1053500027C080E189BD82E189BD89B5982F917010
:1053600080FFFBCF8091D8008F7D8093D800809103
:10537000E1008F7E8093E1008091E2008F7E809338
:10538000E2008091E20081608093E20080914A0413
:10539000882309F447C084E0809353048091530428
:1053A0008091E10083FF27C08091E20083FF23C04A
:1053B0008091E100877F8093E10082E08093530435
:1053C00010924A048091E1008E7F8093E1008091E9
:1053D000E2008E7F8093E2008091E2008061809302
:1053E000E20042E060E080E00E945C048091F00016
:1053F00088608093F000FF91EF91BF91AF919F91F2
:105400008F917F916F915F914F913F912F910F906D
:105410000FBE0F901F90189519BC10925304109254
:10542000250474CF8091E30087FD93E090935304AB
:10543000B5CF78941F921FB61F9211248F939F931C
:10544000AF93BF9380911C0490911D04A0911E0402
:10545000B0911F040196A11DB11D80931C0490936F
:105460001D04A0931E04B0931F04BF91AF919F91A0
:105470008F911F901FBE1F9018951F921FB61F92ED
:1054800011248F939F93AF93BF9380911B0481113D
:1054900013C080911C0490911D04A0911E04B09132
:1054A0001F044196A11DB11D80931C0490931D04FF
:1054B000A0931E04B0931F04BF91AF919F918F9151
:1054C0001F901FBE1F901895CDB7DEB7E5970FB69A
:1054D000F894DEBF0FBECDBF84B7877F84BF0FB601
:1054E000F894A89580916000886180936000109284
:1054F00060000FBE80E890E00FB6F89480936100E2
:10550000909361000FBE85B7806885BF85B78068BE
:1055100085BF82EE97E090939501809394010E945D
:10552000B5120E9427140E949B030E948E04809152
:10553000E20084608093E200789480915304882391
:10554000A1F01091E9001F709091EC00892F8170FB
:1055500090FD80E8182B1092E9008091E80083FD0F
:105560000E9495141F701093E90082E084BD93E0BF
:1055700095BD9AEF97BD80936E000E940014811133
:1055800002C00E94921284E90E94E40785E90E9409
:10559000E40786E90E94E40787E90E94E40784EFB4
:1055A0000E94E40785EF0E94E40786EF0E94E4076B
:1055B00087EF0E94E40784E0E4E2F2E0DF01282FB5
:1055C0001D922A95E9F7E3E1F2E0DF011D928A9549
:1055D000E9F70E94F128811102C00E94F01882E0D0
:1055E00090E00E94633280931B020E9419149093F2
:1055F0002104809320040E94B927EFE3FCE931974E
:10560000F1F700C000000E94B9278091240280FFBA
:1056100008C06FEF7FEF90E080E00E9495320E941B
:10562000240D83E090E00E9463320E94E40B80919D
:105630001702811133C00E94F128811104C00E9419
:10564000F0180E94E11888E090E00E946B326093AD
:105650004C0270934D0280934E0290934F026E7FE6
:1056600071F40E94E11888E090E00E946B32609330
:105670004C0270934D0280934E0290934F020E9411
:10568000E90510923C0280914C0280FF04C060E06A
:1056900086950E94851881E08093170282E091E050
:1056A000909318048093170484E292E0F4E0F80FDA
:1056B000FDAB8E010F5F1F4F80915304853011F5B4
:1056C00060E4D62ECC24C39470E1E72EE2E1FE2EF6
:1056D00080915304853009F49FC10E9480140E9478
:1056E00098051092190280911802882349F0809140
:1056F0004C02816080934C0260E086950E94851880
:105700000E9469170E94B927882359F08FB7F8942F
:1057100040911C0450911D0460911E0470911F045F
:105720008FBFE4E2F2E0ACE1B2E0F12CE12C3E2DDF
:1057300081919D91981709F4C8C1292F282790E0DD
:10574000DD24D394422F4D2109F4BAC19BA73CA775
:105750008D2191E009F490E09DA70E946005816091
:10576000782F9FA78EA74BA55CA56DA58FA50E943E
:10577000DC23F701E45EFD4F8081D826D082809142
:105780003C028823D1F180913B02E0914C02E695E6
:10579000E81BE0933702823009F0B0C1F0E0E8572F
:1057A000FD4FE491EE2EF12C58E9C52E5FE0D52E89
:1057B00080913802882361F0109238020E946005BF
:1057C000909336028093350210923A021092390279
:1057D0000E946005E0913502F09136028E1B9F0B0E
:1057E0008F3F9F4750F4EE0DFF1DF0933602E0937C
:1057F000350285E392E0F601099586E0EFE2F2E0FA
:10580000D80101900D928A95E1F7D0903102C090B5
:105810003202F0903302E090340210923102109282
:10582000320210923302109234028D2D8C2909F429
:1058300048C080912D0290912E020E9451059C013A
:1058400090912902992309F477C523333105C8F1D2
:105850009F3F19F09F5F90932902DD2059F00E942D
:105860005A079FEF1D140CF491E0899F802D11249D
:1058700080933102CC2059F00E945A079FEF1C14EC
:105880000CF491E0899F802D112480933202309195
:1058900031023323B1F020913202222391F045EB03
:1058A0003403C0011124992309F487C19093310274
:1058B00045EB240390011124332309F482C1309372
:1058C00032028F2D8E2909F448C080912B029091CD
:1058D0002C020E9451059C0190912802992309F401
:1058E00026C525363105C8F19F3F19F09F5F90937B
:1058F0002802FF2059F00E9438079FEF1F140CF474
:1059000091E0899F802D112480933302EE2059F07D
:105910000E9438079FEF1E140CF491E0899F802DA0
:10592000112480933402309133023323B1F020915B
:105930003402222391F045EB3403C0011124992352
:1059400009F443C19093330245EB240390011124E1
:10595000332309F43EC13093340280913102909197
:105960003202892B90913302892B90913402892B3A
:1059700011F00E948E0686E0F801AFE2B2E00190DD
:105980000D928A95E1F70E94980590911A02891765
:1059900021F00E94980580931A028091530484306C
:1059A00009F08ACE83E08093E9008091E80082FFCD
:1059B00083CE8091E80090E085FF0AC00E94BA0380
:1059C00050E2E52EF12C6801882309F410C191E022
:1059D0008091E8008B778093E800992309F46CCEDE
:1059E000E090B702F090B8028981E114F10409F463
:1059F0000CC18E3F09F0A5C18A81833020F085500B
:105A0000833008F09EC1EA81EE3008F09AC1F0E0E0
:105A1000E752FD4C0C94EB3180915304843009F42F
:105A20003FC010923C0280911902811116C0C092B1
:105A3000190280914C02982F9170909318028E7FDA
:105A400080934C022FEF30E742E02150304040403D
:105A5000E1F700C000000E94480D10921B0488E18D
:105A600090E00FB6F894A895809360000FBED09296
:105A7000600083B7817F846083BF83B7816083BF09
:105A80007894889583B78E7F83BF0FB6F894A895D6
:105A900080916000886180936000109260000FBE6A
:105AA00080914904882309F413CE0E94B927E4E2C7
:105AB000F2E0819181111DC49DA99E13FACF08CEF9
:105AC0009F5FDD0C943009F03DCE2FEFE21AF20A11
:105AD00034E0E316F10409F02ACE8FEF88AB89ABEE
